:100000000C94D5000C94FD000C94FD000C94FD00A4
:100010000C94FD000C94FD000C94FD000C94FD006C
:100020000C94FD000C94FD000C94FD000C94FD005C
:100030000C94FD000C94FD000C94FD000C94FD004C
:100040000C9483120C94FD000C94D40D0C94AE0D02
:100050000C94FD000C94FD000C94FD000C94FD002C
:100060000C94010F0C94FD0000407A10F35A00A08C
:10007000724E18090010A5D4E80000E87648170071
:1000800000E40B54020000CA9A3B000000E1F505B1
:10009000000080969800000040420F000000A086FB
:1000A00001000000102700000000E803000000002D
:1000B0006400000000000A000000000001000000D1
:1000C00000002C76D888DC674F0823DFC1DFAE59EB
:1000D000E1B1B796E5E3E453C63AE651997696E87E
:1000E000E6C28426EB898C9B62ED407C6FFCEFBC02
:1000F0009C9F40F2BAA56FA5F490055A2AF75C932D
:100100006B6CF9676DC11BFCE0E40D47FEF520E662
:10011000B500D0ED902E0300943577050080841E45
:10012000080000204E0A000000C80C333333330FA0
:10013000986E12831141EF8D2114893BE65516CF3D
:10014000FEE6DB18D1844B381BF77C1D901DA4BB49
:10015000E424203284725E228100C9F124ECA1E5FE
:100160003D2700000000250028002B0004040404A3
:100170000404040402020202020203030303030351
:10018000010204081020408001020408102001022E
:10019000040810200000000800020100000304070A
:1001A00000000000000000001B1811241FBECFEF4C
:1001B000D8E0DEBFCDBF26E0ACE6B3E001C01D92C3
:1001C000A239B207E1F713E0A0E0B1E0EEE5F0E418
:1001D00002C005900D92AC36B107D9F710E0C5ED1D
:1001E000D0E004C02197FE010E941C1EC43DD1072F
:1001F000C9F70E94CD120C942D200C940000089594
:1002000080E090E008958A599E4FFC018081089516
:10021000AF92BF92CF92DF92EF92FF920F931F9314
:10022000CF93DF9300D000D01F92CDB7DEB76436F6
:1002300071053CF0FC01EA59FE4F2081222309F4AC
:1002400075C0DA017B018C01BC016B547F4FED91CD
:10025000FC910190F081E02DCA01099568012EEA18
:10026000C20ED11C2FEFD6012C93F801E155FF4FA0
:100270002EEF208331968083319690833196292FFB
:10028000280F209520833196E0821696FC9245E057
:1002900050E020E030E0DC011696A417B50734F0FA
:1002A0006191260F311D4F5F5F4FF7CF7C01B8E0A2
:1002B000EB0EF11C800F911FFC01EB54FF4F2095BA
:1002C0002083E7E9EE16F104BCF45601C5018C1950
:1002D0009D098E159F056CF5D80112968D919C9104
:1002E0001397F50161915F01DC01ED91FC910190A3
:1002F000F081E02D0995EACF82E391E09A8389832A
:1003000083E08B838EEE91E09D838C83D801ED9109
:10031000FC910190F081E02DAE014F5F5F4F67E0EF
:1003200070E0C80109958FEF9FEF04C080E090E076
:1003300001C0C7010F900F900F900F900F90DF91A9
:10034000CF911F910F91FF90EF90DF90CF90BF90D2
:10035000AF900895CF92DF92EF92FF92FC0110824E
:10036000118212821382DB0120E030E04D9150E0D7
:10037000022E02C0440F551F0A94E2F7052E000C0E
:10038000660B770BC080D180E280F3804C295D2919
:100390006E297F294083518362837383285F3F4F97
:1003A0002032310519F7FF90EF90DF90CF9008953C
:1003B000CF92DF92EF92FF9220E030E06A017B0162
:1003C000022E04C0F694E794D794C7940A94D2F707
:1003D000FC01C192CF01285F3F4F2032310571F7F8
:1003E000FF90EF90DF90CF90089587E292E008951C
:1003F00088E492E00895FB0140815181628173811C
:10040000FC01428353836483758384E090E0089504
:10041000FB01DC0112964C91129713963C911397B5
:1004200014962C91149715968C91408331832283D6
:10043000838384E090E0089589E592E008958AE757
:1004400092E008954F925F926F927F928F929F9267
:10045000AF92BF92EF92FF920F931F93CF93DF93D0
:1004600000D000D0CDB7DEB77C018B01CE01019664
:100470000E94AA0189819A81AB81BC814C015D01F6
:1004800024E0820E911CA11CB11CA8014D5F5F4F9E
:10049000FA0124E030E02901612C712C4814590440
:1004A0006A047B0428F4618161932F5F3F4FF3CF8F
:1004B000F801E80FF91F1382F70153834283049672
:1004C0000F900F900F900F90DF91CF911F910F9190
:1004D000FF90EF90BF90AF909F908F907F906F9024
:1004E0005F904F9008958AE892E0089586E091E049
:1004F00008958BEA92E008958CEC92E008954F9273
:100500005F926F927F928F929F92AF92BF92EF9283
:10051000FF920F931F93CF93DF9300D000D0CDB7FE
:10052000DEB77C018B01FB018191BF01F701828362
:10053000CE0101960E94AA0189819A81AB81BC817A
:100540004C015D01F5E08F0E911CA11CB11CA801AE
:100550004C5F5F4FFA0125E030E02901612C712CDE
:10056000481459046A047B0428F4618161932F5F65
:100570003F4FF3CFF801E80FF91F1482F7015483BE
:10058000438305960F900F900F900F90DF91CF91BE
:100590001F910F91FF90EF90BF90AF909F908F9021
:1005A0007F906F905F904F9008958FED92E0089547
:1005B00080E093E008954F925F926F927F928F92C6
:1005C0009F92AF92BF92CF92DF92EF92FF920F93E2
:1005D0001F93CF93DF93CDB7DEB72C970FB6F89468
:1005E000DEBF0FBECDBF7C018B01DB018C9190E0A3
:1005F000F7019383828311962C91922B93838283AC
:100600006E5F7F4FCE0101960E94AA0189809A8079
:10061000AB80BC8024013501F6E04F0E511C611CFB
:10062000711C98012B5F3F4FF90186E090E0AC010F
:1006300060E070E0441555056605770520F44181BA
:1006400041930196F4CFF801E80DF91D1582D70109
:1006500015963C932E931497B4016A5F7F4F600FF9
:10066000711FCE0105960E94AA01BAE08B0E911C63
:100670004D805E806F807884A401092C000C660B8D
:10068000770B440D551D661D771DD801A80DB91DAA
:10069000CD01801B910B5C01C12CD12CA416B50699
:1006A000C606D70628F48D91FD0132978083F0CFDE
:1006B0005401A40CB51CB8016A0D7B1DFB013197D8
:1006C0001082C4010197800F911FF70197838683E1
:1006D000CE0109960E94AA0195012C5F3F4F8985A2
:1006E0009A85AB85BC852901032E000C6608770826
:1006F000480E591E6A1E7B1EF5013396E00FF11F4E
:10070000A9014A01A12CB12C84149504A604B704B4
:1007100028F4618161934F5F5F4FF3CF820F931F86
:10072000F801E80FF91FDF0111971C9221503109E0
:10073000020F131FD70119961C930E93189721814E
:10074000428150E060E070E0BA0155274427522B07
:100750002081422B2381722BF701428753876487C4
:10076000758704962C960FB6F894DEBF0FBECDBFEA
:10077000DF91CF911F910F91FF90EF90DF90CF907D
:10078000BF90AF909F908F907F906F905F904F90B1
:10079000089589E193E008958AE393E00895FC01C8
:1007A000DB014C9150E060E070E04283538364834E
:1007B000758311968C911197582B428353836483D0
:1007C000758312968C911297682B428353836483AE
:1007D000758313968C911397782B4283538364838C
:1007E000758314964C91149750E060E070E0468356
:1007F00057836087718715968C911597582B468380
:1008000057836087718716968C911697682B46835D
:1008100057836087718717968C91782B468357830F
:100820006087718788E090E00895DC01FB011296F3
:100830008C911297808313968C91139781831496D1
:100840008C911497828315968C91159783831696B5
:100850008C911697848317968C9117978583189699
:100860008C911897868319968C91878388E090E005
:1008700008950895CF92DF92EF92FF920F931F9306
:10088000CF93DF937C01CB018A012091FC032223CB
:1008900089F0EB016B01C40ED51ECC15DD0569F0A6
:1008A0006991D701ED91FC910190F081E02DC70194
:1008B0000995F3CF642F0E942F10C801DF91CF91CB
:1008C0001F910F91FF90EF90DF90CF900895CF93FD
:1008D000DF931F92CDB7DEB769832091FC032223FB
:1008E000D1F020911F04203240F021E030E0FC01E3
:1008F0003383228380E090E015C08091FD03E82FD0
:10090000F0E0E250FC4F998190838F5F8093FD036C
:1009100080931F0405C061E0CE0101960E942F1054
:1009200081E090E00F90DF91CF9108950C94BA1E72
:10093000EF92FF920F931F93CF93DF937C018B0174
:10094000DC011296ED91FC911397EF0109900020C4
:10095000E9F72197CE1BDF0BAE0160E070E0C80124
:100960000E94D801F70162817381AE01C80104962B
:100970000E940E20CE010496DF91CF911F910F911E
:10098000FF90EF9008954F925F926F927F92AF9297
:10099000BF92CF92DF92EF92FF920F931F93CF936C
:1009A000DF93EC018B018A81FB0180838B81818342
:1009B0008C8182838D818383DB0140E050E0BA012A
:1009C000E4E0F0E01496CA80DB80EC80FD80CF018B
:1009D00004964C155D056E057F05C8F42A853B8598
:1009E000E20FF31F3497D080F18032812381DC92B3
:1009F0001196FC92119712963C93129713962C9392
:100A00001397FC014F5F5F4F6F4F7F4FDBCF5F014D
:100A1000A00EB11E2C85F50120832D8521832E8506
:100A200022832F852383D50140E050E0BA01CC8496
:100A3000DD84EE84FF849C012C5F3F4F4C155D05E7
:100A40006E057F05F8F4CD018A199B09EC88FD88B5
:100A50008E0D9F1DFC01D080E180F2808381149671
:100A6000DC9214971596EC9215971696FC921697B1
:100A700017968C931797C9014F5F5F4F6F4F7F4F4A
:100A80001496D5CFF801E80FF91F8E8980838F89DE
:100A90008183888D8283898D83837901A12CB12CF8
:100AA000412C512C32018E899F89A88DB98D481611
:100AB00059066A067B0680F5EC8DFD8DEA0DFB1D5F
:100AC000A081B181FD0101900020E9F731976F010C
:100AD000CA1ADB0AA60160E070E0C8018E0D9F1DF6
:100AE0000E94D801F4E0EF0EF11CEC8DFD8DEA0DB3
:100AF000FB1D60817181A601C8018E0D9F1D0E94A2
:100B00000E20EC0CFD1C8FEF481A580A680A780A70
:100B1000E2E0AE0EB11CC7CFC701DF91CF911F91AC
:100B20000F91FF90EF90DF90CF90BF90AF907F90AC
:100B30006F905F904F900895EF92FF920F931F93E5
:100B4000CF93DF938C017B01DC0112962C911297DD
:100B5000FB012193CF011396ED91FC911497EF01C6
:100B600009900020E9F72197CE1BDF0BAE0160E072
:100B700070E00E94D801D80113966D917C91149772
:100B8000AE01C70105960E940E20CE010596DF91A9
:100B9000CF911F910F91FF90EF900895CF92DF9228
:100BA000EF92FF920F931F93CF93DF937C018B0102
:100BB000DC0112968C911297FB01808313968C9125
:100BC000139781831496ED91FC911597EF0109908D
:100BD0000020E9F72197CE1BDF0BAE0160E070E04B
:100BE000C80102960E94D801D70114966D917C919C
:100BF0001597AE01C80106960E940E20CE010696FA
:100C0000F701A681B781FD0101900020E9F7319736
:100C10006F01CA1ADB0AA60160E070E0800F911F25
:100C20000E94D8012A96D70116966D917C9117974C
:100C3000A601C8018C0F9D1F0E940E20CC0DDD1D4A
:100C4000D7011896ED91FC911997DF010D900020C6
:100C5000E9F711976D01CE1ADF0AA60160E070E096
:100C6000C8018C0F9D1F0E94D8012496F701608552
:100C70007185A601C8018C0F9D1F0E940E20C60120
:100C80008C0F9D1FD7011A966C911A971B964C9149
:100C90001B971C963C911C971D962C91F801E80F10
:100CA000F91F60834183328323830496DF91CF91C0
:100CB0001F910F91FF90EF90DF90CF9008952F92AA
:100CC0003F924F925F926F927F928F929F92AF92DC
:100CD000BF92CF92DF92EF92FF920F931F93CF9329
:100CE000DF93CDB7DEB760970FB6F894DEBF0FBEC7
:100CF000CDBF8C016B01DB018D909D90AD90BC90C0
:100D0000FC0182819381A481B58188159905AA058A
:100D1000BB0570F4B401660F771F660F771F8285DD
:100D200093850E94431FD8011B969C938E931A971C
:100D3000F80182829382A482B5829601812C912C43
:100D4000540144E050E0B8016A5F7F4F2C5F3F4F91
:100D5000F80182819381A481B581FA0134961F0143
:100D600088169906AA06BB0650F5D9011196FC9083
:100D7000119712968C9190E0A0E0B0E0DC019927E9
:100D800088279F29F901F0808F29F380BF29F80176
:100D900086839783A087B187DA01A10114978285A2
:100DA0009385A80FB91F84E0FB0101900D928A95ED
:100DB000E1F7FFEF8F1A9F0AAF0ABF0AC7CF4601BC
:100DC000840E951ED4018C9111969C9111971296C8
:100DD0004C901297512C612C712C320155244424D3
:100DE000592A482A13968C91782A5F01F801848544
:100DF0009585A685B78584159505A605B70570F474
:100E0000B201660F771F660F771F848995890E944C
:100E1000431FD80155969C938E935497F8014486AE
:100E2000558666867786C401412C512C3201980183
:100E3000205F3F4FD8011C964D915D916D917C9143
:100E40001F97F5013496441655066606770698F501
:100E5000DC011596FC90159716964C91169750E06C
:100E600060E070E0BA01552744275F291496FC9092
:100E700014974F291796FC907F29D80150964D93CF
:100E80005D936D937C9353975F01AC0148195909A9
:100E900054960D90BC91A02DA40FB51F44E0F9010C
:100EA00001900D924A95E1F7BFEF4B1A5B0A6B0A6E
:100EB0007B0A0496BFCFD601AA0DBB1D8C9111965B
:100EC0009C91119712968C901297912CA12CB12C79
:100ED000540199248824992A882A13968C91B82A37
:100EE0007F01F80186899789A08DB18D88159905B4
:100EF000AA05BB0560F4B401660F771F848D958D3C
:100F00000E94431FD8015D969C938E935C97F801D5
:100F1000868A978AA08EB18E212C312C812C912C1F
:100F200054019801265E3F4F3A872987F801868948
:100F30009789A08DB18D88169906AA06BB0608F080
:100F40005FC0B6016E0D7F1DCE0101960E94AA0101
:100F500097012C5F3F4F388B2F8749815A816B81D6
:100F60007C81C901330FAA0BBB0B2C013D01440E40
:100F7000551E661E771E4B865C866D867E8623E038
:100F8000E20EF11CF601EE0DFF1D2F853889C90117
:100F9000A0E0B0E04B845C846D847E84841595056C
:100FA000A605B70528F4A181A1932F5F3F4FEFCF8E
:100FB0006F847888460D571DF601E40FF51F3197B1
:100FC0001082C30101978C0D9D1DD8015B969C93E7
:100FD0008E935A977A015C96ED91FC915D97E20DA4
:100FE000F31DA985BA858D919C9191838083BFEF74
:100FF0008B1A9B0AAB0ABB0AE2E02E0E311C96CF7D
:10100000C70160960FB6F894DEBF0FBECDBFDF916B
:10101000CF911F910F91FF90EF90DF90CF90BF90F5
:10102000AF909F908F907F906F905F904F903F9088
:101030002F9008952F923F924F925F926F927F92DE
:101040008F929F92AF92BF92CF92DF92EF92FF92D8
:101050000F931F93CF93DF93CDB7DEB7A6970FB64D
:10106000F894DEBF0FBECDBF8C010E943F124B0132
:101070005C01980125593E4F3E8B2D8BF9018081F3
:101080009181A281B381A5019401281B390B4A0BE0
:101090005B0BDA01C901893F9A42A105B10510F045
:1010A00035971082180144EA241A4EEF340AD10110
:1010B0008D919C91892B79F0F801E159FE4F808147
:1010C0009181A281B38188159905AA05BB0518F401
:1010D000F1011182108298012C593E4F3A8B298BD5
:1010E000A801405A5E4F5C8B4B8BC8014896988F85
:1010F0008F8BD801AA59BE4FBC8FAB8FF801EC582B
:10110000FE4FFE8FED8F215F3F4F38A32F8F425050
:101110005109588B4F87865B9E4F9A8F898F1996FE
:10112000BAA3A9A3A50194012C5E3F4F4F4F5F4F77
:101130002BA33CA34DA35EA3F80184899589A689BE
:10114000B789892B8A2B8B2B81F4D80112968D912C
:101150009C911397DC01ED91FC910284F385E02DC5
:1011600009959C0197FF14C08DC20E943F12DC01BB
:10117000CB0188199909AA09BB09F801C488D58847
:10118000E688F788C816D906EA06FB06F0F6A1C27B
:10119000A989BA898D919C911197820F931F8D9384
:1011A0009C93F1014081518147305105D9F4A98DBB
:1011B000BA8D8D919C911197AC014F5F5F4F4D930C
:1011C0005C93F801E80FF91F208FEF85F889808183
:1011D0009181019791838083892B09F0ADCF88E0BD
:1011E00090E032C04115510539F52F3F310589F4A2
:1011F00081E090E0F101918380832BA13CA14DA17E
:101200005EA1A9A1BAA12D933D934D935C93139731
:1012100093CF0E943F12DC01CB0188199909AA09DA
:10122000BB0989389341A105B10508F485CFF801C0
:10123000EA59FE4F10824DC241305105A9F42E3FAC
:10124000310531F482E090E0D1018D939C9374CF0D
:10125000F10111821082AB8DBC8D8C9181116CCF0C
:10126000C8010E944B1268CF4230510591F4EF85BE
:10127000F88931832083A98DBA8D1D921C9283E059
:1012800090E0F10191838083A989BA892D933C93E1
:1012900053CF4330510569F4322F2227EF85F88967
:1012A00080819181280F391F3183208384E090E071
:1012B000CBCF4430510581F460E071E00E94D21D33
:1012C0008F3F910531F485E090E0F10191838083B7
:1012D00033CF1182108230CF4530510571F4EB8944
:1012E000FC893183208386E090E0D1018D939C932B
:1012F000E989FA89318320831FCF46305105A9F44B
:10130000322F2227AB89BC898D919C911197280F90
:10131000391F2D933C9387E090E0F1019183808306
:10132000AF85B8898D919C9157CF4830510509F010
:1013300003CFF1011182108260E071E00E94D21DA2
:101340008F3F910509F0F8CEAB89BC898D919C91B6
:10135000009709F0C6C0C8010E944B1286E291E0D6
:101360009A8389831C821B8286E292E09E838D830E
:1013700098878F839A8789871B861C861D861E8681
:101380006801BCEBCB1ABEEFDB0A7801E0EBEE1A8A
:10139000EEEFFE0A26E9422E512C612C712CD6016B
:1013A000ED91FC913097A9F1848195819C838B8389
:1013B000808191819E838D8382819381DC01ED9177
:1013C000FC910480F581E02D099598878F83D601E3
:1013D000ED91FC9182819381DC01ED91FC9106807D
:1013E000F781E02D09959A8789874B865C866D8603
:1013F0007E86D601ED91FC9160857185D801ED91D5
:10140000FC910190F081E02DAE014F5F5F4FC8016C
:101410000995B2E0CB0ED11CEC14FD0409F0BFCF4E
:1014200096E9492E512C612C712CF701A081B181D4
:101430001097E1F112968D919C9113979C838B8369
:1014400014968D919C9115979E838D83ED91FC91BF
:1014500011970480F581E02DCD01099598878F8340
:10146000D7018D919C91DC01ED91FC910680F78173
:10147000E02D09959A8789874B865C866D867E86E6
:10148000D801ED91FC91C080D180F70180819181DC
:10149000DC01ED91FC910280F381E02D0995AE0114
:1014A0004F5F5F4FBC01C801F6010995F2E0EF0EF6
:1014B000F11CE214F30409F0B8CFF801EA59FE4F29
:1014C00081E08083319680829182A282B382AD894D
:1014D000BE898D929D92AD92BC9213978FEF9FEF34
:1014E000FDC08A30910509F0A2C08EE391E09A8395
:1014F00089831B821C821D821E821F821886198688
:101500001A860E943F12F801C084D184E284F384D9
:101510009B01AC012C193D094E095F0969017A0153
:101520006F89788DCE0101960E94CF03C701B60165
:1015300028EE33E040E050E00E94E61DCB80DC80E6
:10154000ED80FE80C20ED31EE41EF51ECB82DC822F
:10155000ED82FE829B01AC0160E472E48FE090E0DA
:101560000E94C21DCF80D884E984FA84DC01CB01BB
:101570008C0D9D1DAE1DBF1D8F839887A987BA87CF
:101580000E943F12CF80D884E984FA8436E3D31ACC
:1015900035E6E30A34ECF30A28EE33E040E050E0AD
:1015A0000E94E61D29013A019B01AC0160E472E44E
:1015B0008FE090E00E94C21DA7019601261B370B09
:1015C000480B590BCA01B901CB80DC80ED80FE804D
:1015D00031E0C31AD108E108F108A70196012419E6
:1015E00035094609570929013A0120E03AEC4AE950
:1015F0005BE30E94E61D73016201C20ED31EE41E6E
:10160000F51ED8011C96CD92DD92ED92FC921F97AB
:10161000F801608B718B828B938B0E943F12AD8996
:10162000BE896D937D938D939C93139785CD863062
:10163000910559F46F89788D8D8D9E8D0E945F067E
:1016400081E0EF8DF8A1808377CD8B30910521F477
:10165000AB8DBC8D1C9270CDFC01EC5BFF4FEE0F8F
:10166000FF1FE00FF11F80819181009709F464CD85
:10167000DC01ED91FC910190F081E02D6F89788D76
:1016800009955ACDF801EA59FE4F8081882321F14E
:101690007801B9E9EB1ABEEFFB0AF701808191816D
:1016A000A281B381A5019401281B390B4A0B5B0B66
:1016B000DA01C901853C9940A105B10568F0C8016E
:1016C0000E944B12D7018D929D92AD92BC921397BE
:1016D00003C08EEF9FEF02C080E090E0A6960FB6A9
:1016E000F894DEBF0FBECDBFDF91CF911F910F9158
:1016F000FF90EF90DF90CF90BF90AF909F908F9032
:101700007F906F905F904F903F902F900895089535
:10171000CF92DF92EF92FF920F931F93CF93DF93BD
:101720006C017A018B01C0E0D0E0CE15DF0581F0BD
:10173000D8016D918D01D601ED91FC910190F08160
:10174000E02DC6010995892B11F02196EECF7E017F
:10175000C701DF91CF911F910F91FF90EF90DF9024
:10176000CF900895FC01538D448D252F30E0842FB8
:1017700090E0821B930B541710F0CF9608950197B9
:101780000895FC01918D828D981761F0828DDF01A3
:10179000A80FB11D5D968C91928D9F5F9F73928F64
:1017A00090E008958FEF9FEF0895FC01918D828D59
:1017B000981731F0828DE80FF11D858D90E0089526
:1017C0008FEF9FEF0895FC01918D228D892F90E07E
:1017D000805C9F4F821B91098F739927089580E247
:1017E00094E00E94E30B21E0892B09F420E0822F92
:1017F0000895FC01848DDF01A80FB11DA35ABF4FCE
:101800002C91848D90E001968F739927848FA689FF
:10181000B7892C93A089B1898C91837080648C9353
:10182000938D848D981306C00288F389E02D808102
:101830008F7D80830895EF92FF920F931F93CF9334
:10184000DF93EC0181E0888F9B8D8C8D981305C010
:10185000E889F989808185FD26C0F62E0B8D10E080
:101860000F5F1F4F0F731127E02E8C8DE8120CC0F5
:101870000FB607FCFACFE889F989808185FFF5CF9B
:10188000CE010E94F90BF1CF8B8DFE01E80FF11D07
:10189000E35AFF4FF0829FB7F8940B8FEA89FB89D8
:1018A000808180620AC09FB7F894EE89FF896083C7
:1018B000E889F98980818370806480839FBF81E09B
:1018C00090E0DF91CF911F910F91FF90EF900895DD
:1018D000CF93DF93EC01888D8823C9F0EA89FB89D7
:1018E000808185FD05C0A889B9898C9186FD0FC0CE
:1018F0000FB607FCF5CF808185FFF2CFA889B989A3
:101900008C9185FFEDCFCE010E94F90BE7CFDF91DF
:10191000CF91089580E090E0892B29F00E94EF0B91
:1019200081110C940000089585ED8093BC00809196
:10193000BC0084FDFCCF1092FB0308950895089528
:101940000895E091B4038091B303E81730F4F0E018
:10195000EB54FC4F808190E008958FEF9FEF089546
:101960009091B4038091B303981750F4E92FF0E0FD
:10197000EB54FC4F208130E09F5F9093B40302C092
:101980002FEF3FEFC90108958091B30390E02091BC
:10199000B403821B910908950E9409200F931F939D
:1019A000CF93DF938C01EB0188E2FB0111928A95C2
:1019B000E9F74BE050E068E473E0CE010E941E209E
:1019C0001B8681E090E0A0E0B0E08C879D87AE8729
:1019D000BF87F80186819781A085B185888B998B17
:1019E000AA8BBB8B83E090E0A0E0B0E08C8B9D8B5A
:1019F000AE8BBF8B1CA21DA21EA21FA2188E198E19
:101A00001A8E1B8E1C8E1D8E1E8E1F8E8AE097EDE9
:101A1000A3E2BCE388A399A3AAA3BBA3DF91CF91C0
:101A20001F910F9108950F931F93CF93DF93EC01B4
:101A300088819981009729F02A813B8126173707F1
:101A400088F48B016F5F7F4F0E94431F009761F006
:101A5000998388831B830A832C813D81232B11F476
:101A6000FC01108281E001C080E0DF91CF911F91E5
:101A70000F910895EF92FF920F931F93CF93DF93EF
:101A8000EC017B018A01BA010E94130D2881398182
:101A900081110DC02115310519F0C9010E94BA1E2E
:101AA000198218821D821C821B821A8206C01D8325
:101AB0000C83B701C9010E941720CE01DF91CF919D
:101AC0001F910F91FF90EF900895EF92FF920F9367
:101AD0001F93CF93DF93CDB7DEB7A1970FB6F894DE
:101AE000DEBF0FBECDBF7C01CB01BA01F701118271
:101AF0001082138212821582148242E0420F8E01FC
:101B00000F5F1F4F0E94B219009769F0FC0101900E
:101B10000020E9F73197AF01481B590BBC01C70101
:101B20000E943A0D0EC0F70180819181009711F05B
:101B30000E94BA1EF701118210821582148213824C
:101B40001282A1960FB6F894DEBF0FBECDBFDF9113
:101B5000CF911F910F91FF90EF9008951F920F92D8
:101B60000FB60F9211242F933F934F935F936F9370
:101B70007F938F939F93AF93BF93EF93FF9380E2F5
:101B800094E00E94F90BFF91EF91BF91AF919F916B
:101B90008F917F916F915F914F913F912F910F9016
:101BA0000FBE0F901F9018951F920F920FB60F92B5
:101BB00011242F938F939F93EF93FF93E091300421
:101BC000F09131048081E0913604F091370482FD78
:101BD00012C09081809139048F5F8F7320913A04F5
:101BE000821751F0E0913904F0E0E05EFB4F958FF1
:101BF0008093390401C08081FF91EF919F918F9173
:101C00002F910F900FBE0F901F901895DF92EF92BB
:101C1000FF920F931F93CF93DF938C01D42EE52E69
:101C2000F22EDC0113968C91139791E09093FC03B4
:101C300080931E041092FD0310921F0414968D9140
:101C40009C911597DC01ED91FC910190F081E02DC4
:101C5000099581E00E94AA106F2DB0E2BF1508F42B
:101C600060E2F80183810E9433111092B4038093E3
:101C7000B303CD2DDE2DCE018F0D911D7C01CE1530
:101C8000DF0571F0D80114968D919C911597DC01B8
:101C9000ED91FC910284F385E02D09958993EFCFB6
:101CA00081E0DF91CF911F910F91FF90EF90DF9036
:101CB00008958F929F92AF92BF92CF92DF92EF9250
:101CC000FF920F931F93CF93DF93CDB7DEB7629749
:101CD0000FB6F894DEBF0FBECDBF7C018B0184E24E
:101CE000DB011D928A95E9F784E290E0A0E0B0E084
:101CF000FB0180839183A283B383F701868197815F
:101D0000A085B185FB0184839583A683B78383E097
:101D100090E0A0E0B0E080879187A287B3870E941F
:101D20003F12D80150966D937D938D939C9353975A
:101D3000FE0131968CE0DF011D928A95E9F7AE0134
:101D4000435F5F4F86E0FA0111928A95E9F726E03A
:101D50006AE170E0C7010E94060E6D857E85072E40
:101D6000000C880B990B0E94061C20E030E040E834
:101D70005DE30E94411C4B015C016F857889072E51
:101D8000000C880B990B0E94061C20E030E040E814
:101D90005DE30E94411C6B017C0169897A89072EF1
:101DA000000C880B990B0E94061C20E030E040E8F4
:101DB0005DE30E94411CD80154968D929D92AD9294
:101DC000BC925797F801C08ED18EE28EF38E5C964E
:101DD0006D937D938D939C935F9781E062960FB690
:101DE000F894DEBF0FBECDBFDF91CF911F910F9151
:101DF000FF90EF90DF90CF90BF90AF909F908F902B
:101E000008951F920F920FB60F9211242F933F93B4
:101E10004F935F936F937F938F939F93AF93BF93F2
:101E2000EF93FF938091B900887F803609F49CC0BE
:101E300068F5883209F45BC090F4803109F454C02D
:101E400038F4882309F4F6C0883009F44DC0F6C090
:101E5000883109F44CC0803209F45DC0EFC0803491
:101E600009F468C048F4803309F455C0883309F098
:101E7000E5C08093F903D8C0803509F44FC0883598
:101E800009F45DC0883409F0D9C0D6C0883909F496
:101E9000C7C0A8F4883709F467C038F4883609F455
:101EA00063C0803709F460C0C9C0883809F4B8C07D
:101EB000803909F45FC0803809F0C0C05BC0803B46
:101EC00009F486C038F4803A09F466C0883A09F407
:101ED0007FC0B4C0803C09F4A7C0883C09F4A4C00A
:101EE000883B09F48AC0AAC08091D60310C09091A3
:101EF000F8038091F703981770F5E091F80381E0FB
:101F00008E0F8093F803F0E0E952FC4F80818093BC
:101F1000BB0085EC86C08093F9038EC0E091F80386
:101F200081E08E0F8093F8038091BB00F0E0E952CE
:101F3000FC4F80839091F8038091F7036EC0E0918D
:101F4000F80381E08E0F8093F8038091BB00F0E0EE
:101F5000E952FC4F80838091FA0381116DC081E0CA
:101F60008093D50384EA61C083E08093FB031092E1
:101F7000B203CFCF8091B203803208F051C0E0911C
:101F8000B20381E08E0F8093B2038091BB00F0E03A
:101F9000EE56FC4F8083BDCF85EC8093BC00109241
:101FA000FB038091B203803230F4E091B203F0E0A1
:101FB000EE56FC4F10826091B20370E0E0916C032A
:101FC000F0916D0382E993E009951092B20336C057
:101FD00084E08093FB031092910310929003E091B0
:101FE0006E03F0916F03099580919003811105C0F4
:101FF00081E08093900310927003E091910381E05F
:102000008E0F80939103F0E0E059FC4F8081809324
:10201000BB009091910380919003981708F479CFB9
:1020200085E88093BC000AC085EC8093BC001092C8
:10203000FB0304C01092F9030E94940CFF91EF91EE
:10204000BF91AF919F918F917F916F915F914F91D0
:102050003F912F910F900FBE0F901F9018954091B8
:102060009003262F30E0240F311D21323105DCF49E
:102070002091FB032430C9F4FC0180E090E0861736
:1020800058F4309190032191DC01A059BC4FA30F6B
:10209000B11D2C930196F3CF80919003680F60934C
:1020A000900380E0089581E0089582E008953FB7AD
:1020B000F89480917E0690917F06A0918006B09161
:1020C000810626B5A89B05C02F3F19F00196A11DDA
:1020D000B11D3FBFBA2FA92F982F8827820F911DBE
:1020E000A11DB11DBC01CD0142E0660F771F881F05
:1020F000991F4A95D1F70895EF92FF920F931F937E
:10210000CF93DF936115710511F480E01CC0411578
:102110005105C1F07B01EC018C819D818A01080F82
:10212000191FB801CE010E94130D882371F3288175
:1021300039818C819D81B701820F931F0E941720E6
:102140001D830C8381E0DF91CF911F910F91FF9050
:10215000EF900895282F30911F04313208F04AC0C3
:102160008091FB038111FCCF90911E0442E04093CB
:10217000FB032093FA032FEF2093F9031092F80347
:102180003093F703EEEFF3E0A7EDB3E020E0321772
:1021900021F041914D932F5FFACF1092D6032091F9
:1021A000D603990F922B9093D6039091D50391303B
:1021B00061F41092D5039091D6039093BB00909157
:1021C000BC0093FDF8CF95EC01C095EE9093BC0058
:1021D0009091FB039230E1F39091F9039F3F79F0E6
:1021E0008091F903803241F08091F903803331F01E
:1021F00084E005C081E003C082E001C083E010926A
:10220000FD0310921F041092FC0308951F93CF93B7
:10221000DF93162FCDE6D6E09B8121E02093FC03CF
:1022200090931E041092FD0310921F04AC81BD8197
:10223000ED91FC9111970190F081E02D682FCD0177
:1022400009958C819D81DC01ED91FC910190F081DB
:10225000E02D612F099581E00E94AA1081E0DF91B5
:10226000CF911F9108959091FB039111FCCF91E0C4
:102270009093FB039093FA032FEF2093F9031092AE
:10228000F803260F2093F7039093D6039091D6037B
:10229000880F892B8093D6038091D503813061F418
:1022A0001092D5038091D6038093BB008091BC002F
:1022B00083FDF8CF85EC01C085EE8093BC00809152
:1022C000FB038130E1F38091F803861710F46091ED
:1022D000F803A7EDB3E0E5EBF3E080E0861721F02B
:1022E0009D9191938F5FFACF0895CF93DF93CDE6C1
:1022F000D6E08B8191E09093FC0380931E041092B2
:10230000FD0310921F048C819D81DC01ED91FC91F5
:102310000190F081E02D60E0099581E00E94AA1013
:1023200061E08B810E9433111092B4038093B30358
:102330008C819D81DC01ED91FC910284F385E02D7F
:102340000995DF91CF91089590E0FC01EC56FE4F86
:102350002491FC01E058FE4F3491FC01E459FE4FFA
:10236000E491EE23B1F1222339F1233091F038F4D6
:102370002130A9F0223001F584B58F7D12C02730BD
:1023800091F02830A1F02430B9F4809180008F7D45
:1023900003C0809180008F77809380000DC084B54A
:1023A0008F7784BD09C08091B0008F7703C0809182
:1023B000B0008F7D8093B000F0E0EE0FFF1FEE596C
:1023C000FE4FA591B4918FB7F894EC91E32BEC9369
:1023D0008FBF0895FC01808191810C94BA1EFB018E
:1023E00044815581608171810C947C106115710567
:1023F00051F0FB0101900020E9F73197AF01461B36
:10240000570B0C947C1080E008958F929F92AF92AE
:10241000BF92CF92DF92EF92FF926B017C010E94FC
:1024200057104B015C01C114D104E104F104F1F037
:102430000E945710DC01CB0188199909AA09BB0930
:10244000883E9340A105B10570F321E0C21AD1087E
:10245000E108F10888EE880E83E0981EA11CB11CEB
:10246000C114D104E104F10419F7DDCFFF90EF901E
:10247000DF90CF90BF90AF909F908F9008952FB72F
:10248000F89460917A0670917B0680917C06909119
:102490007D062FBF08950F931F93CF93DF93CDB782
:1024A000DEB72A970FB6F894DEBF0FBECDBF8C0102
:1024B0008EE391E09A8389831B821C821D821E8297
:1024C0001F82188619861A86D801ED91FC91019019
:1024D000F081E02DAE014F5F5F4F6AE070E0C80110
:1024E00009950E943F12F801608771878287938760
:1024F0002A960FB6F894DEBF0FBECDBFDF91CF9105
:102500001F910F9108951F920F920FB60F921124F1
:102510002F933F938F939F93AF93BF9380917A06AE
:1025200090917B06A0917C06B0917D063091790652
:1025300023E0230F2D3720F40196A11DB11D05C006
:1025400026E8230F0296A11DB11D209379068093E2
:102550007A0690937B06A0937C06B0937D068091CB
:102560007E0690917F06A0918006B091810601962B
:10257000A11DB11D80937E0690937F06A0938006D7
:10258000B0938106BF91AF919F918F913F912F9111
:102590000F900FBE0F901F901895CF93DF93CDB77C
:1025A000DEB7CC59D1090FB6F894DEBF0FBECDBF50
:1025B000789484B5826084BD84B5816084BD85B51E
:1025C000826085BD85B5816085BD80916E0081602A
:1025D00080936E00109281008091810082608093D0
:1025E00081008091810081608093810080918000D2
:1025F0008160809380008091B10084608093B100FD
:102600008091B00081608093B00080917A008460F6
:1026100080937A0080917A00826080937A00809122
:102620007A00816080937A0080917A00806880933C
:102630007A001092C1001092B4031092B30310926A
:10264000FD0310921F041092FB0381E08093FA03B4
:102650001092D50382E10E94A41183E10E94A4118B
:102660008091B9008E7F8093B9008091B9008D7FF1
:102670008093B90088E48093B80085E48093BC001F
:102680008EE99CE090936F0380936E038FE99CE04A
:1026900090936D0380936C030E947511803AC9F486
:1026A000109278061092770660E08DE390E00E9429
:1026B00006116EE170E080E090E00E94051260E299
:1026C0008FE390E00E9406116EE170E080E090E000
:1026D0000CC068EE73E080E090E00E9405120E945A
:1026E0007511803A09F070C0DBCF0E9405120E947C
:1026F0007511803A29F06AE070E080E090E0F5CF53
:1027000062E370E080E090E00E94051260E08EE3FA
:1027100090E00E9406116AE070E080E090E00E9484
:10272000051260E087E090E00E94061160E08FE310
:1027300090E00E9406116AE070E080E090E00E9464
:1027400005128CE090E090937806809377066CE019
:102750008DE390E00E9406116EE170E080E090E071
:102760000E94051264E170E080E090E00E94051292
:1027700080E092ECA1E0B0E08093DF049093E0046D
:10278000A093E104B093E20440E052EC61E070E019
:102790008091DD049091DE040E944F19109238065A
:1027A0001092370610923A061092390610923E06A1
:1027B00010923D0610923C0610923B06AFE1B6E047
:1027C000FD0180E090E005C0FFCF019686309105C5
:1027D000C9F021913191232BC1F7FC01EE0FFF1FAE
:1027E000E15EF94F27EC34E03183208386599F4F17
:1027F0009093CC048093CB048BED94E09093CE0423
:102800008093CD0480E090E02D913D91232BB1F495
:10281000FC01EE0FFF1FE15EF94F2DEB34E0318339
:10282000208386599F4F9093C2048093C1048BEDFF
:1028300094E09093C4048093C30404C0019686304E
:10284000910511F740E052EC61E070E080E294E025
:102850000E944F1968EE73E080E090E00E9405123C
:102860001E0129E4220E311C84E2482E512C612CD9
:10287000712C8E0103591F4FAE01435F5F4FCF563E
:10288000DF4F59834883C159D040C8010C96C556C3
:10289000DF4F99838883CB59D040C557DF4F1982CA
:1028A0001882CB58D040C357DF4F19821882CD58B9
:1028B000D040C157DF4F19821882CF58D04040E036
:1028C00050E066E272E0CE0185579F4F0E943A0DBC
:1028D00084E2D1011D928A95E9F7F101408251828B
:1028E000628273828091730690917406A09175063E
:1028F000B091760684839583A683B7830E943F12A6
:10290000D10150966D937D938D939C9353977E0147
:10291000B5E2EB0EF11C8CE0F701282F11922A95FD
:10292000E9F72BE030E040E050E0D10118962D931C
:102930003D934D935C931B97FE0131966F01DF0130
:102940001D928A95E9F7F80126E011922A95E9F798
:1029500026E0A80164E170E08DE696E00E94060E94
:10296000D80112968D909C9013971496AD90BC90C0
:1029700015976D917C91072E000C880B990B0E9486
:10298000061C20E030E040E85DE30E94411C6983C2
:102990007A838B839C83B401990C880B990B0E94DA
:1029A000061C20E030E040E85DE30E94411C6D839E
:1029B0007E838F839887B501BB0C880B990B0E948F
:1029C000061C20E030E040E85DE30E94411C69877E
:1029D0007A878B879C87F601D7014191519161914C
:1029E00071914D935D936D937D93CF56DF4F288109
:1029F0003981C159D040E217F30779F78DA19EA123
:102A0000AFA1B8A5F101848B958BA68BB78B89A557
:102A10009AA5ABA5BCA5808F918FA28FB38F8DA5F2
:102A20009EA5AFA5B8A9848F958FA68FB78F84E296
:102A3000D7011D928A95E9F74DA25EA26FA278A6F2
:102A40008091730690917406A0917506B0917606F8
:102A500089A79AA7ABA7BCA70E943F126DAB7EAB1C
:102A60008FAB98AF8CE0F801282F11922A95E9F7E7
:102A70004AE050E060E070E04DA75EA76FA778AB3A
:102A8000D6011D928A95E9F77E01B9E7EB0EF11C9C
:102A9000F70126E011922A95E9F726E0A70168E2FE
:102AA00070E08DE696E00E94060ED70112968D909A
:102AB0009C9013971496AD90BC9015976D917C9156
:102AC000072E000C880B990B0E94061C20E030E0BA
:102AD00048EC52E40E94501D69837A838B839C8367
:102AE000B401990C880B990B0E94061C20E030E081
:102AF00048EC52E40E94501D6D837E838F8398873B
:102B0000B501BB0C880B990B0E94061C20E030E03D
:102B100048EC52E40E94501D69877A878B879C8716
:102B2000F601D80141915191619171914D935D935D
:102B30006D937D93CF56DF4F28813981C159D040A5
:102B4000E217F30779F7F80180819181A281B381BF
:102B500089AF9AAFABAFBCAF84819581A681B781B5
:102B600021968CAF9DAFAEAFBFAF21978085918589
:102B7000A285B38525968CAF9DAFAEAFBFAF25972D
:102B800084E2D6011D928A95E9F749825A826B82C6
:102B90007C828091730690917406A0917506B09125
:102BA00076068D839E83AF83B8870E943F12698B20
:102BB0007A8B8B8B9C8B8CE0F701282F11922A95B6
:102BC000E9F743E050E060E070E049875A876B879F
:102BD0007C87D8011D928A95E9F76E01B5E8CB0E86
:102BE000D11CF60126E011922A95E9F726E0A6010C
:102BF0006AE170E08DE696E00E94060ED60112961C
:102C00008D909C9013971496AD90BC9015976D91F4
:102C10007C91072E000C880B990B0E94061C20E06B
:102C200030E040E85DE30E94411CF801608371835D
:102C300082839383B401990C880B990B0E94061C24
:102C400020E030E040E85DE30E94411CD80114968A
:102C50006D937D938D939C931797B501BB0C880B57
:102C6000990B0E94061C20E030E040E85DE30E94E2
:102C7000411CF8016087718782879387D701419152
:102C80005191619171914D935D936D937D93C55673
:102C9000DF4F28813981CB59D040E217F30779F70C
:102CA000F70180819181A281B3818D8B9E8BAF8B47
:102CB000B88F84819581A681B781898F9A8FAB8FD8
:102CC000BC8F80859185A285B3858D8F9E8FAF8FB8
:102CD000B8A388E0D8011D928A95E9F728E0A801F9
:102CE00060E270E08DE696E00E94060EF8016681D3
:102CF0007781072E000C880B990B0E94061C20E0A0
:102D000030E040E858E30E94411CCD56DF4F688315
:102D100079838A839B83C359D040D80114966D91DF
:102D20007C911597072E000C880B990B0E94061CAE
:102D300020E030E040E858E30E94411C6B017C0138
:102D4000F80162817381072E000C880B990B0E9499
:102D5000061C20E030E040E858E30E94411C4B0193
:102D60005C01D8016D917C91072E000C880B990BAA
:102D70000E94061C20E030E040E858E30E94411C1D
:102D8000C956DF4F688379838A839B83C759D040B4
:102D900060EC71E0CE0185579F4F0E94F61126E04E
:102DA000C956DF4F488159816A817B81C759D0401C
:102DB000C8010E94650DB801CE0185579F4F0E9442
:102DC000EF11C8010E94EA1164EC71E0CE01855751
:102DD0009F4F0E94F61126E0B501A401C8010E9490
:102DE000650DB801CE0185579F4F0E94EF11C801B4
:102DF0000E94EA1168EC71E0CE0185579F4F0E9456
:102E0000F61126E0B701A601C8010E94650DB801C0
:102E1000CE0185579F4F0E94EF11C8010E94EA1111
:102E20006CEC71E0CE0185579F4F0E94F61126E0B1
:102E3000CD56DF4F488159816A817B81C359D0408B
:102E4000C8010E94650DB801CE0185579F4F0E94B1
:102E5000EF11C8010E94EA1160ED71E0CE018557C3
:102E60009F4F0E94F611F10144895589668977893F
:102E700024E0C8010E94650DB801CE0185579F4F1F
:102E80000E94EF11C8010E94EA1165ED71E0CE01C8
:102E900085579F4F0E94F611D10158964D915D9133
:102EA0006D917C915B9724E0C8010E94650DB8018B
:102EB000CE0185579F4F0E94EF11C8010E94EA1171
:102EC0006AED71E0CE0185579F4F0E94F611F10126
:102ED000448D558D668D778D24E0C8010E94650D67
:102EE000B801CE0185579F4F0E94EF11C8010E9483
:102EF000EA116FED71E0CE0185579F4F0E94F611E8
:102F000049AD5AAD6BAD7CAD24E0C8010E94650DA2
:102F1000B801CE0185579F4F0E94EF11C8010E9452
:102F2000EA1164EE71E0CE0185579F4F0E94F611C1
:102F300021964CAD5DAD6EAD7FAD219724E0C8010B
:102F40000E94650DB801CE0185579F4F0E94EF1179
:102F5000C8010E94EA1169EE71E0CE0185579F4FCA
:102F60000E94F61125964CAD5DAD6EAD7FAD2597F7
:102F700024E0C8010E94650DB801CE0185579F4F1E
:102F80000E94EF11C8010E94EA11C557DF4F8881E6
:102F90009981CB58D0409093D4048093D3042BEDE7
:102FA0003FE049E450E46D897E898F89988D0E94C5
:102FB000411C20E030E044E353E40E94501D609344
:102FC000D7047093D8048093D9049093DA04809145
:102FD000CD049091CE046091CB047091CC04DC01BF
:102FE000ED91FC910190F081E02D41ED54E00995C7
:102FF0008091C3049091C4046091C1047091C20493
:10300000DC01ED91FC910190F081E02D45ED54E063
:10301000099564E670E080E090E00E9405128BED77
:1030200094E00E941A08CE0185579F4F0E94EA1132
:103030000E948A0C32CC109223041092220488EE53
:1030400093E0A0E0B0E08093240490932504A09343
:103050002604B09327042AE431E03093210420931E
:10306000200425EC30E030932D0420932C0424EC34
:1030700030E030932F0420932E0420EC30E0309386
:1030800031042093300421EC30E03093330420935A
:10309000320422EC30E0309335042093340426ECE3
:1030A00030E03093370420933604109239041092A4
:1030B0003A0410923B0410923C0410928506109240
:1030C00084068093860690938706A0938806B09323
:1030D00089068CE591E0909383068093820684E8CC
:1030E00091E090936E0680936D0687E390E0A0E0F8
:1030F000B0E08093730690937406A0937506B09326
:10310000760688E28093700682E896E090937206D5
:10311000809371068AE791E09093DC048093DB044E
:1031200080E294E09093DE048093DD0480E091EEF1
:10313000A0E0B0E08093DF049093E004A093E1046A
:10314000B093E204109241068EE691E0909350060F
:1031500080934F0610925106109252061092530619
:103160001092540610925A061092590610925B065D
:1031700010925C0610925D0610925E061092640634
:10318000109263061092650610926606109267060A
:103190001092680610926C0610926B061092200630
:1031A00010921F06109222061092210610922406F9
:1031B00010922306109226061092250610922806D9
:1031C0001092270610922A061092290610922C06B9
:1031D00010922B0610922E0610922D061092300699
:1031E00010922F0610923206109231061092340679
:1031F000109233061092360610923506A3EFB4E013
:10320000E9E8F5E01D92EA17FB07E1F78FE196E0A8
:1032100011928E179F07E1F71092EF041092F004BD
:103220001092F1041092F2048CEA91E09093D6048B
:103230008093D5041092D7041092D8041092D90428
:103240001092DA0480EA91E09093D2048093D10442
:1032500086E292E09093D4048093D3048FE493E0C9
:103260009093C8048093C70481ED94E09093CA04BE
:103270008093C9041092D0041092CF048FE593E09C
:103280009093BE048093BD0485ED94E09093C004B8
:103290008093BF041092C6041092C5040895CF9283
:1032A000DF92EF92FF92CF93DF93EC016A017B01F3
:1032B000E889F98982E080834115514E61057105E5
:1032C000B1F060E079E08DE390E0A70196010E9403
:1032D000E61DDA01C9010197A109B109B695A795C3
:1032E000979587959C01211580E13807A8F0E8891A
:1032F000F989108260E874E88EE190E0A7019601F8
:103300000E94E61DDA01C9010197A109B109B6952C
:10331000A795979587959C01EC85FD853083EE8573
:10332000FF852083188EEC89FD8986E08083EA89F9
:10333000FB89808180618083EA89FB898081886044
:103340008083EA89FB89808180688083EA89FB89A0
:1033500080818F7D8083DF91CF91FF90EF90DF9010
:10336000CF900895EF920F931F93CF93DF93E801CF
:1033700047FD02C034E001C034E1042E000C550BBF
:1033800057FF03C0519541955109E32E022F242F79
:10339000AE010E94D219CE01DF91CF911F910F9102
:1033A000EF900895A9E0B0E0E8EDF9E10C94101D6C
:1033B0006A01122FB02E2BE3201720F0FF24F39484
:1033C000F00E02C02CE3F22E0F2D27E0AE014F5F6E
:1033D0005F4F0E942C1BBC014981842F8970813072
:1033E00031F0E1FC06C0E0FE06C090E205C09DE2BF
:1033F00003C09BE201C090E05E2D507143FF3CC0D2
:10340000911102C083E001C084E0811718F4212FDC
:10341000281B01C020E051110BC0F601822F30E2C1
:10342000882319F031938150FBCFC20ED11C20E0CC
:10343000992329F0D6019C93F60131966F01C601BC
:103440000396E2FE0AC03EE4D6013C9341E41196A5
:103450004C93119712963C9306C03EE6F6013083DA
:1034600041E641833283FC01322F40E2332309F4E9
:1034700042C041933150FACF42FF44C0911102C083
:1034800083E001C084E0811718F4212F281B01C0BC
:1034900020E051110BC0F601822F30E2882319F091
:1034A00031938150FBCFC20ED11C20E0992329F02B
:1034B000D6019C93F60131966F01C6010396E2FE98
:1034C0000BC039E4D6013C933EE411963C9311972E
:1034D00036E412963C9307C039E6F60130833EE6A7
:1034E000318336E63283FC01322F40E2332319F078
:1034F00041933150FBCFFC01E20FF11D10828EEFA2
:103500009FEFA6C021E030E0911102C020E030E042
:10351000161617061CF4FB01319602C0E1E0F0E03C
:103520002E0F3F1FBB2021F0EB2DF0E0319602C0A3
:10353000E0E0F0E02E0F3F1FE12FF0E02E173F07F5
:103540001CF4121B212F01C020E08E2D887159F42C
:10355000F601822F30E2882319F031938150FBCF9E
:10356000C20ED11C20E0992329F0D6019C93F601CC
:1035700031966F0151110BC0F601822F90E3882321
:1035800019F091938150FBCFC20ED11C20E00F2D7A
:10359000060F9A81342F307144FF03C0913309F430
:1035A0000150101624F4093018F008E001C001E0C1
:1035B000AB0177FF02C040E050E0FB01E41BF50BDC
:1035C000A1E0B0E0AC0FBD1FEA0FFB1F8EE2A82EFA
:1035D0004B01801A91080B2D10E0119501951109EE
:1035E0004F3FBFEF5B0721F4D601AC9211966D01FE
:1035F000641775072CF08416950614F4818101C0B8
:1036000080E3415051093196D60111967D01401752
:10361000510724F0D6018C936701E2CF6417750738
:1036200039F4963320F4953319F4311101C081E354
:10363000F6018083F701822F90E2882319F091939D
:103640008150FBCFF701E20FF11D108280E090E086
:103650002996ECE00C942C1D283008F027E0332745
:10366000DA01990F311D87FD9160009661057105A2
:1036700039F432602E5F3D9330E32A95E1F70895E7
:103680009F3F30F080387105610509F03C5F3C5F79
:103690003D93913008F08068911DDF93CF931F9385
:1036A0000F93FF92EF92192F987F9695E92F969599
:1036B0009695E90FFF27EE53FF4F99273327EE2406
:1036C000FF24A701E70105900894079428F4360F1A
:1036D000E71EF81E491F511D660F771F881F991F8F
:1036E0000694A1F70590079428F4E70EF81E491FE9
:1036F000561FC11D770F881F991F661F0694A1F7DB
:103700000590079428F4F80E491F561FC71FD11DB6
:10371000880F991F661F771F0694A1F705900794DD
:1037200020F4490F561FC71FD81F990F661F771F18
:10373000881F0694A9F784911095177041F0D695CB
:10374000C79557954795F794E7941A95C1F7E8E61A
:10375000F0E06894159015913591659195910590DB
:103760007FE27395E118F10A430B560BC90BD009A0
:10377000C0F7E10CF11E431F561FC91FD01D7EF478
:10378000703311F48A95E6CFE894015030F0080FB9
:103790000AF40027021708F4202F2395022F7A330A
:1037A00028F079E37D932A95E9F710C07D932A9557
:1037B00089F6069497956795379517951794E118AC
:1037C000F10A430B560BC90BD00998F023957E9153
:1037D00073957A3308F070E37C932013B8F77E91E9
:1037E00070617D9330F0839571E37D9370E32A954A
:1037F000E1F71124EF90FF900F911F91CF91DF918E
:10380000992787FD90950895E89409C097FB3EF4A9
:1038100090958095709561957F4F8F4F9F4F99231D
:10382000A9F0F92F96E9BB279395F695879577959B
:103830006795B795F111F8CFFAF4BB0F11F460FF5B
:103840001BC06F5F7F4F8F4F9F4F16C0882311F0B3
:1038500096E911C0772321F09EE8872F762F05C0C7
:10386000662371F096E8862F70E060E02AF09A9562
:10387000660F771F881FDAF7880F9695879597F957
:1038800008950E94541C0C94C51C0E94B71C38F06B
:103890000E94BE1C20F0952311F00C94AE1C0C94D9
:1038A000B41C11240C94F91C0E94D61C70F3959F33
:1038B000C1F3950F50E0551F629FF001729FBB2727
:1038C000F00DB11D639FAA27F00DB11DAA1F649FC3
:1038D0006627B00DA11D661F829F2227B00DA11D76
:1038E000621F739FB00DA11D621F839FA00D611DFC
:1038F000221F749F3327A00D611D231F849F600D1D
:10390000211D822F762F6A2F11249F5750409AF045
:10391000F1F088234AF0EE0FFF1FBB1F661F771FD1
:10392000881F91505040A9F79E3F510580F00C949C
:10393000AE1C0C94F91C5F3FE4F3983ED4F38695DB
:1039400077956795B795F795E7959F5FC1F7FE2B3C
:10395000880F911D9695879597F9089597F99F6718
:1039600080E870E060E008959FEF80EC0895002407
:103970000A941616170618060906089500240A94D4
:1039800012161306140605060895092E0394000C5A
:1039900011F4882352F0BB0F40F4BF2B11F460FFE9
:1039A00004C06F5F7F4F8F4F9F4F089557FD905812
:1039B000440F551F59F05F3F71F04795880F97FBF3
:1039C000991F61F09F3F79F08795089512161306AD
:1039D0001406551FF2CF4695F1DF08C016161706DC
:1039E0001806991FF1CF8695710561050894089511
:1039F000E894BB2766277727CB0197F908950E94A3
:103A0000411DA59F900DB49F900DA49F800D911D09
:103A1000112408952F923F924F925F926F927F925E
:103A20008F929F92AF92BF92CF92DF92EF92FF92CE
:103A30000F931F93CF93DF93CDB7DEB7CA1BDB0B7A
:103A40000FB6F894DEBF0FBECDBF09942A8839881F
:103A500048885F846E847D848C849B84AA84B98426
:103A6000C884DF80EE80FD800C811B81AA81B98132
:103A7000CE0FD11D0FB6F894DEBF0FBECDBFED0146
:103A80000895A29FB001B39FC001A39F700D811D37
:103A90001124911DB29F700D811D1124911D089557
:103AA0000E94641D0C94C51C0E94BE1C58F00E940C
:103AB000B71C40F029F45F3F29F00C94AE1C511163
:103AC0000C94F91C0C94B41C0E94D61C68F3992326
:103AD000B1F3552391F3951B550BBB27AA2762170A
:103AE0007307840738F09F5F5F4F220F331F441F17
:103AF000AA1FA9F335D00E2E3AF0E0E832D091504B
:103B00005040E695001CCAF72BD0FE2F29D0660F37
:103B1000771F881FBB1F261737074807AB07B0E87A
:103B200009F0BB0B802DBF01FF2793585F4F3AF080
:103B30009E3F510578F00C94AE1C0C94F91C5F3F2D
:103B4000E4F3983ED4F3869577956795B795F79506
:103B50009F5FC9F7880F911D9695879597F90895EE
:103B6000E1E0660F771F881FBB1F6217730784078A
:103B7000BA0720F0621B730B840BBA0BEE1F88F799
:103B8000E0950895DB018F939F930E94FF1CBF91E6
:103B9000AF91A29F800D911DA39F900DB29F900D9C
:103BA0001124089597FB072E16F4009407D077FD93
:103BB00009D00E94081E07FC05D03EF4909581951F
:103BC0009F4F0895709561957F4F0895A1E21A2E39
:103BD000AA1BBB1BFD010DC0AA1FBB1FEE1FFF1FB1
:103BE000A217B307E407F50720F0A21BB30BE40B01
:103BF000F50B661F771F881F991F1A9469F7609548
:103C00007095809590959B01AC01BD01CF01089501
:103C1000AA1BBB1B51E107C0AA1FBB1FA617B707F2
:103C200010F0A61BB70B881F991F5A95A9F780950E
:103C30009095BC01CD010895EE0FFF1F0590F49102
:103C4000E02D09940F931F93CF93DF93823091055A
:103C500010F482E090E0E0919006F091910620E06F
:103C600030E0A0E0B0E0309719F14081518102814D
:103C7000138148175907C8F08417950769F41097FE
:103C800031F012960C93129713961C9327C0009351
:103C900090061093910622C02115310519F04217A4
:103CA000530718F49A01BD01EF01DF01F801DBCFE2
:103CB00021153105F9F0281B390B2430310580F42A
:103CC0008A819B816115710521F0FB0193838283B9
:103CD00004C09093910680939006FE01329644C0F2
:103CE000FE01E20FF31F8193919322503109398332
:103CF00028833AC020918E0630918F06232B41F401
:103D0000209102013091030130938F0620938E069B
:103D100020910001309101012115310541F42DB7A9
:103D20003EB74091040150910501241B350BE091F1
:103D30008E06F0918F06E217F307A0F42E1B3F0BBF
:103D40002817390778F0AC014E5F5F4F241735070D
:103D500048F04E0F5F1F50938F0640938E0681935D
:103D6000919302C0E0E0F0E0CF01DF91CF911F918D
:103D70000F910895CF93DF93009709F481C0FC0160
:103D8000329713821282A0919006B09191061097FB
:103D900081F420813181820F931F20918E06309112
:103DA0008F062817390751F5F0938F06E0938E069A
:103DB00067C0ED0120E030E0CE17DF0740F44A8114
:103DC0005B819E0141155105F1F0EA01F5CFD383E6
:103DD000C28340815181840F951FC817D90759F4B8
:103DE00088819981840F951F0296918380838A81AF
:103DF0009B81938382832115310529F4F0939106E9
:103E0000E09390063DC0E901FB83EA834991599113
:103E1000C40FD51FEC17FD0761F480819181840FD9
:103E2000951F0296E90199838883828193819B8300
:103E30008A83E0E0F0E012968D919C9113970097B1
:103E400019F0FD01DC01F7CF8D919C9111979D0137
:103E50002E5F3F4F820F931F20918E0630918F0669
:103E60002817390769F4309729F4109291061092B7
:103E7000900602C013821282B0938F06A0938E0622
:103E8000DF91CF910895A0E0B0E0E9E4FFE10C9468
:103E90000E1DEC01009721F4CB010E94221EB4C03C
:103EA000FC01E60FF71F9C0122503109E217F307CE
:103EB00008F4A8C0D9010D911C9111970617170796
:103EC000B0F00530110508F49BC0C80104978617AF
:103ED000970708F495C002501109061B170B0193B0
:103EE00011936D937C93CF010E94BA1E89C05B0130
:103EF000A01AB10A4C01800E911EA0919006B091BB
:103F00009106612C712CE12CF12C109709F446C01C
:103F10008D919C911197A815B905B1F56C0142E0FE
:103F2000C40ED11CCA14DB0478F14C018A189B081A
:103F3000640142E0C40ED11C1296BC9012971396F5
:103F4000AC91B5E0CB16D10440F0B282A38391824C
:103F50008082D9016D937C9309C00E5F1F4F800F43
:103F6000911FF90191838083EB2DFA2FE114F10465
:103F700031F0D7011396FC93EE93129741C0F09362
:103F80009106E09390063CC06816790608F43C015F
:103F90007D0112960D90BC91A02DB7CF80918E0619
:103FA00090918F0688169906E1F466167706C8F494
:103FB0008091000190910101009741F48DB79EB767
:103FC0004091040150910501841B950BE817F907F6
:103FD000C8F4F0938F06E0938E06F9017183608335
:103FE0000FC0CB010E94221E7C01009759F0A8014E
:103FF000BE010E940E20CE010E94BA1EC70104C05D
:10400000CE0102C080E090E0CDB7DEB7EEE00C94C8
:104010002A1D81E090E0F8940C942D20FB01DC0136
:1040200002C001900D9241505040D8F70895FB0115
:10403000DC0101900D920020E1F70895FB01DC0105
:104040004150504048F001900D920020C9F701C046
:0E4050001D9241505040E0F70895F894FFCFC4
:10405E00000092068000726F7373657269616C5F07
:10406E006D7367732F5265717565737450617261EC
:10407E006D0000000000CE05DB02D802D502000064
:10408E0000009C057F027C027902000000001504EE
:10409E00CF03CC03C903000000001B0C880BB20B2E
:1040AE00680CE30BC10BD50B0000000067043A044B
:1040BE000001A00CC40CB00CA10C00000000C30445
:1040CE005F06760273020000000008011A08030161
:1040DE0000000000870B96043904590ECE0C000028
:1040EE000000000000003904CC0CCC0C00000000D5
:1040FE00980422021F021C02000000000802FB01AD
:10410E00F801F50100000000CC0CCC0CCC0CCC0C52
:10411E0071573A0071583A0071593A00715A3A0083
:10412E006176583A006176593A0061765A3A006CD7
:10413E0061583A006C61593A006C615A3A004D650B
:10414E0073736167652066726F6D2064657669634F
:10415E00652064726F707065643A206D657373616B
:10416E006765206C6172676572207468616E20628B
:10417E0075666665722E0037336663626634366224
:10418E003439313931653637323930386535303872
:10419E0034326138336434007374645F6D736773E3
:1041AE002F466C6F61743332003939326365386172
:1041BE00313638376365633863386264383833654F
:1041CE00633733636134316431007374645F6D73CC
:1041DE0067732F537472696E6700396630653938AC
:1041EE006264613635393831393836646466353350
:1041FE006166613761343065343900313161626432
:10420E0037333163323539333332363163643631D5
:10421E00383362643132643632393500726F7373FB
:10422E00657269616C5F6D7367732F4C6F670030D9
:10423E0061643531663838666334343839326638FD
:10424E006331303638343037373634363030350027
:10425E00726F7373657269616C5F6D7367732F54E0
:10426E006F706963496E666F00636437313636630B
:10427E0037346335353263333131666263633266A8
:10428E00653561376263323839007374645F6D73FC
:10429E0067732F54696D6500424E4F30353500619E
:1042AE00726475696E6F2F7261775F696D75006FDD
:0C42BE007269656E746174696F6E0000B7
:00000001FF
